:100000000C9463000C948B000C948B000C94DF0414
:100010000C94DF040C94DF040C948B000C948B0084
:100020000C948B000C948B000C948B000C948B0024
:100030000C948B000C948B000C948B000C948B0014
:100040000C943D040C948B000C94AD040C94870428
:100050000C948B000C948B000C948B000C948B00F4
:100060000C948B000C948B000000000024002700EF
:100070002A0000000008000201000003040700003D
:1000800000000000000000000000250028002B00F8
:1000900000000000230026002900040404040404D6
:1000A0000404020202020202030303030303010227
:1000B00004081020408001020408102001020408F6
:1000C00010205905840811241FBECFEFD8E0DEBFF1
:1000D000CDBF11E0A0E0B1E0E0EEF1E102C005909B
:1000E0000D92A83EB107D9F722E0A8EEB1E001C019
:1000F0001D92A73FB207E1F710E0C2E6D0E004C0CE
:100100002197FE010E94D808C136D107C9F70E9485
:1001100004060C94E3080C94000090E0FC01EE58F7
:10012000FF4F3491FC01E255FF4F2491FC01E6564C
:10013000FF4FE491EE2309F43BC0332339F1333010
:1001400091F038F43130A9F0323001F584B58F7D6B
:1001500012C0373091F03830A1F03430B9F48091CA
:1001600080008F7D03C0809180008F778093800016
:100170000DC084B58F7784BD09C08091B0008F77A2
:1001800003C08091B0008F7D8093B000F0E0EE0F4F
:10019000FF1FEA57FF4FA591B4918FB7F894EC91E8
:1001A000611103C020952E2301C02E2B2C938FBFED
:1001B0000895CF93DF9390E0FC01E255FF4F249127
:1001C000FC01E656FF4F8491882361F190E0880F8F
:1001D000991FFC01E859FF4FC591D491FC01EA57E2
:1001E000FF4FA591B491611109C09FB7F894888120
:1001F000209582238883EC912E230BC0623061F41A
:100200009FB7F8943881822F809583238883EC915F
:100210002E2B2C939FBF06C08FB7F894E8812E2B0E
:1002200028838FBFDF91CF9108951F93CF93DF93E2
:10023000182FEB0161E00E94D900209711F460E0D3
:1002400004C0CF3FD10539F461E0812FDF91CF9118
:100250001F910C948D00E12FF0E0EE58FF4FE491D8
:10026000E330F9F048F4E130B9F0E230A1F584B5BB
:10027000806284BDC8BD34C0E730E9F0E83019F1D0
:10028000E43049F580918000806280938000D093B3
:100290008B00C0938A0024C084B5806884BDC7BD2C
:1002A0001FC080918000806880938000D093890077
:1002B000C093880015C08091B00080688093B00022
:1002C000C093B3000DC08091B00080628093B000F5
:1002D000C093B40005C0C038D1050CF0B5CFAFCF86
:1002E000DF91CF911F9108953FB7F8948091370225
:1002F00090913802A0913902B0913A0226B5A89B9C
:1003000005C02F3F19F00196A11DB11D3FBFBA2FA7
:10031000A92F982F8827820F911DA11DB11DBC0107
:10032000CD0142E0660F771F881F991F4A95D1F7CC
:1003300008958F929F92AF92BF92CF92DF92EF92E9
:10034000FF926B017C010E9474014B015C01C1149E
:10035000D104E104F104F1F00E947401DC01CB014D
:1003600088199909AA09BB09883E9340A105B105DE
:1003700070F321E0C21AD108E108F10888EE880E76
:1003800083E0981EA11CB11CC114D104E104F10446
:1003900019F7DDCFFF90EF90DF90CF90BF90AF9037
:1003A0009F908F900895CF92DF92EF92FF920F93DC
:1003B0001F93CF93DF936C017A018B01C0E0D0E0F3
:1003C000CE15DF0589F0D8016D918D01D601ED9133
:1003D000FC910190F081E02DC6010995892B11F463
:1003E0007E0102C02196ECCFC701DF91CF911F9112
:1003F0000F91FF90EF90DF90CF900895FC01538D07
:10040000448D252F30E0842F90E0821B930B5417EE
:1004100010F0CF96089501970895FC01918D828D7B
:10042000981761F0828DDF01A80FB11D5D968C9148
:10043000928D9F5F9F73928F90E008958FEF9FEF53
:100440000895FC01918D828D981731F0828DE80F0F
:10045000F11D858D90E008958FEF9FEF0895FC01C9
:10046000918D228D892F90E0805C9F4F821B910996
:100470008F73992708958BE392E00E942F0221E069
:10048000892B09F420E0822F0895FC01848DDF017F
:10049000A80FB11DA35ABF4F2C91848D90E00196F7
:1004A0008F739927848FA689B7892C93A089B189E6
:1004B0008C9180648C93938D848D981306C00288F0
:1004C000F389E02D80818F7D80830895EF92FF92E4
:1004D0000F931F93CF93DF93EC0181E0888F9B8D67
:1004E0008C8D981305C0E889F989808185FD24C029
:1004F000F62E0B8D10E00F5F1F4F0F731127E02EAC
:100500008C8DE8120CC00FB607FCFACFE889F98988
:10051000808185FFF5CFCE010E944502F1CF8B8D02
:10052000FE01E80FF11DE35AFF4FF0820B8FEA89BD
:10053000FB898081806207C0EE89FF896083E8893A
:10054000F98980818064808381E090E0DF91CF91A0
:100550001F910F91FF90EF900895CF93DF93EC01DF
:10056000888D8823C9F0EA89FB89808185FD05C0D3
:10057000A889B9898C9186FD0FC00FB607FCF5CF0D
:10058000808185FFF2CFA889B9898C9185FFEDCF55
:10059000CE010E944502E7CFDF91CF91089580E020
:1005A00090E0892B29F00E943B0281110C940000FD
:1005B000089520912A0230912B022817390771F4EF
:1005C0009091280280912902981741F0E091280229
:1005D000F0E0E851FE4F808190E008958FEF9FEFAB
:1005E000089508951F93CF93DF93DC015C962D91BE
:1005F0003C915D972115310539F481E090E0139627
:100600009C938E9312973DC05196ED91FC91529719
:1006100050969C915097892F80951FB75E964C916C
:100620005E9741FB772770F941FD6095F894408112
:10063000772311F0492B01C048234083E90121971A
:10064000F1F748E0508160FF02C0592B01C05823E8
:100650005083E9012197F1F76695415099F7772387
:1006600021F090818923808303C08081982B90831F
:100670001FBF5C968D919C915D970197F1F721E0EA
:1006800030E0C901DF91CF911F91089520912A0296
:1006900030912B022817390771F48091290220919B
:1006A000280290E0805C9F4F821B910960E470E01B
:1006B0000E948E08089580E090E0089520912A021B
:1006C00030912B0228173907B9F4909128028091B4
:1006D0002902981789F0E0912802F0E0E851FE4FD6
:1006E00080812091280230E02F5F3F4F2F73332706
:1006F0002093280290E008958FEF9FEF0895E091F6
:100700002A02F0912B02E817F90769F4A389B4894A
:100710009C918589809589238C9310922B0210924D
:100720002A0281E0089580E00895089580E090E035
:100730000895009769F0FC0101900020E9F73197D6
:10074000AF01481B590BBC018BE392E00C94D30121
:1007500080E090E00895CF93DF930E949903EC012D
:100760008AE291E00E9499038C0F9D1FDF91CF9147
:1007700008958F929F92AF92BF92CF92DF92EF92A5
:10078000FF920F931F93CF93DF93CDB7DEB7A1975F
:100790000FB6F894DEBF0FBECDBF6C01990FEE0807
:1007A000FF08F7FE31C0E0913B02F0913C0201905E
:1007B000F081E02D6DE28BE392E009958C01222718
:1007C0003327A9012C193D094E095F0919A2CE0151
:1007D00081967C019AE0892E912CA12CB12CCA0122
:1007E000B901A50194010E94A208605DF70162931E
:1007F0007F01211531054105510589F7CF010E947F
:100800009903080F191F1EC0A701960119A28E0196
:100810000F5D1F4F8AE0C82ED12CE12CF12CCA01AC
:10082000B901A70196010E94A208605DF8016293D8
:100830008F01211531054105510589F7CF010E942E
:1008400099038C018AE291E00E949903800F911F25
:10085000A1960FB6F894DEBF0FBECDBFDF91CF914A
:100860001F910F91FF90EF90DF90CF90BF90AF90CE
:100870009F908F9008950E94DE081F920F920FB6EE
:100880000F9211242F933F938F939F93AF93BF9316
:100890008091330290913402A0913502B0913602DA
:1008A0003091320223E0230F2D3720F40196A11D51
:1008B000B11D05C026E8230F0296A11DB11D20938E
:1008C00032028093330290933402A0933502B093A6
:1008D00036028091370290913802A0913902B0918E
:1008E0003A020196A11DB11D809337029093380200
:1008F000A0933902B0933A02BF91AF919F918F912B
:100900003F912F910F900FBE0F901F9018951F923F
:100910000F920FB60F9211242F933F934F935F9333
:100920006F937F938F939F93AF93BF93EF93FF93B7
:100930008BE392E00E944502FF91EF91BF91AF914E
:100940009F918F917F916F915F914F913F912F91E7
:100950000F900FBE0F901F9018951F920F920FB619
:100960000F9211242F938F939F93EF93FF93E09116
:100970004B02F0914C028081E0915102F0915202C1
:1009800082FD12C09081809154028F5F8F732091FD
:100990005502821751F0E0915402F0E0E55CFD4F02
:1009A000958F8093540201C08081FF91EF919F91B8
:1009B0008F912F910F900FBE0F901F9018951F923F
:1009C0000F920FB60F9211242F933F934F935F9383
:1009D0006F937F938F939F93AF93BF93EF93FF9307
:1009E000E0912A02F0912B02309709F451C0968DC4
:1009F000A685B785858591FF04C09C91892329F43C
:100A000047C09C91892309F043C0A389B4899C9174
:100A10008589809589238C93868997890197F1F739
:100A2000608D718DA685B785558538E020E0CB01B6
:100A30000197F1F7822F90E095958795282F4C919B
:100A4000452309F02068315091F7868D81FD20956E
:100A50008091290290E001968F73992730912802A6
:100A6000381749F0A0912902B0E0A851BE4F2C934D
:100A70008093290203C0868D8160868F828D938D3D
:100A80000197F1F7A389B4899C918589892B8C936F
:100A9000FF91EF91BF91AF919F918F917F916F9156
:100AA0005F914F913F912F910F900FBE0F901F902C
:100AB000189510923E0210923D0288EE93E0A0E05D
:100AC000B0E080933F0290934002A0934102B09324
:100AD00042022AE031E030933C0220933B0225ECB5
:100AE00030E0309348022093470224EC30E030930A
:100AF0004A022093490220EC30E030934C022093CC
:100B00004B0221EC30E030934E0220934D0222EC58
:100B100030E03093500220934F0226EC30E03093C7
:100B200052022093510210925402109255021092D8
:100B30005602109257021092DB021092DA02809352
:100B4000DC029093DD02A093DE02B093DF028CE121
:100B500091E09093D9028093D8021092EF02109204
:100B6000EE021092F1021092F0021092F302109233
:100B7000F2021092F5021092F4026091F6026E7F7A
:100B80006D7F6093F6026695617081E0682787E06B
:100B90000E948D0061E087E00E94D900E5EBF0E063
:100BA000E491E093E802E1EAF0E0E491F0E0EE0F96
:100BB000FF1FEA57FF4F859194919093EA0280932B
:100BC000E90260E086E00E94D9008091F60281FD92
:100BD00004C061E086E00E948D0086E08093E4021C
:100BE000E4EBF0E0E491E093E502E0EAF0E0E49188
:100BF000F0E0EE0FFF1FE057FF4F85919491909327
:100C0000E7028093E6020895789484B5826084BDFB
:100C100084B5816084BD85B5826085BD85B5816000
:100C200085BD80916E00816080936E00109281007E
:100C30008091810082608093810080918100816039
:100C400080938100809180008160809380008091FA
:100C5000B10084608093B1008091B0008160809386
:100C6000B00080917A00846080937A0080917A004D
:100C7000826080937A0080917A00816080937A000C
:100C800080917A00806880937A001092C10061E0C0
:100C90008BE00E94D90061E08CE00E94D90061E005
:100CA00085E00E94D90061E083E00E94D90061E004
:100CB00084E00E94D90061E08AE00E94D90061E0EE
:100CC00089E00E94D90061E088E00E94D90060E0DC
:100CD00082E00E94D90061E082E00E948D00E091F4
:100CE0004B02F0914C0282E08083E0914702F09148
:100CF00048021082E0914902F0914A028FEC808311
:100D000010925302E0914F02F091500286E08083EE
:100D1000E0914D02F0914E02808180618083E091EC
:100D20004D02F0914E02808188608083E0914D02F7
:100D3000F0914E02808180688083E0914D02F091B5
:100D40004E0280818F7D80831092F3021092F20216
:100D50001092F1021092F0021092EF021092EE0245
:100D60008DE991E09093F5028093F4029091E40272
:100D7000963108F057C02DEB30E03093EF0220930E
:100D8000EE022BE931E03093F1022093F0022CE2E5
:100D900031E03093F3022093F20220916800983002
:100DA00050F031E09E3008F430E081E001C0880F5F
:100DB0003A95EAF701C084E0822B8093680098306E
:100DC00038F09E3040F0963148F020E030E008C026
:100DD0002DE630E005C02BE630E002C02CE630E026
:100DE0003093EC022093EB02983030F481E001C0A4
:100DF000880F9A95EAF70EC0292F30E09E3018F43C
:100E00002850310902C02E50310981E001C0880FFD
:100E10002A95EAF78093ED028091F4029091F50211
:100E20000197F1F78091F2029091F302892B21F161
:100E300080912A0290912B0222E0883D9207E1F0F6
:100E4000009711F00E947F038091F6028E7F8093BD
:100E5000F602109229021092280288ED92E09093F7
:100E60002B0280932A02E091EB02F091EC02908138
:100E70008091ED02892B808364EF71E080E090E047
:100E80000E9499018DE291E00E94AB0388ED92E00F
:100E90000E944603892B21F081E491E00E94AB037C
:100EA000EE24E394F12C06E410E0CAEFD0E088EDE4
:100EB00092E00E944603892B09F4A3C088ED92E0DA
:100EC0000E945E0390933102809330028335910536
:100ED00051F080E591E00E94990380913002909159
:100EE00031020E94B9038091300290913102C4977F
:100EF00061F48AE591E00E94AB03D0932F02C09386
:100F00002E0210922D0210922C02809130029091AC
:100F10003102C29761F48BE691E00E94AB03D0935B
:100F20002D02C0932C0210922F0210922E0280915B
:100F30003002909131028535910519F580910401B7
:100F40009091050105968B3F91052CF49093050136
:100F50008093040104C0D0930501C09304018AE783
:100F600091E00E94AB038AE891E00E94990380918E
:100F70000401909105010E94B903109303010093AD
:100F80000201809130029091310284349105D9F4AC
:100F90008FE991E00E94AB038CEA91E00E949903F3
:100FA00080910201909103010E94B9038091020196
:100FB0009091030105969093030180930201109391
:100FC0000501009304018091300290913102873431
:100FD000910541F48EEB91E00E94AB031092010168
:100FE000109200018091300290913102823591057A
:100FF00041F484ED91E00E94AB03F0920101E09294
:10100000000169E170E080E090E00E949901809128
:101010000001909101011816190634F460E08BE08C
:101020000E948D0060E005C061E08BE00E948D00B1
:1010300061E08CE00E948D0060912E0270912F0281
:10104000693C710584F08AE00E94150161E089E045
:101050000E948D0060E088E00E948D0010922F02B7
:1010600010922E0216C060912C0270912D02693CE4
:101070007105B4F08AE00E94150161E088E00E94E9
:101080008D0060E089E00E948D0010922D02109288
:101090002C0268EC70E080E090E00E94990104C0AE
:1010A00060E08AE00E948D0060910401709105016A
:1010B000613571054CF085E00E94150161E083E027
:1010C0000E948D0060E00FC06091020170910301E9
:1010D0006135710594F085E00E94150160E083E0C0
:1010E0000E948D0061E084E00E948D0062E370E068
:1010F00080E090E00E94990104C060E085E00E94D9
:101100008D000E94CF02D3CE8CE191E09093D90262
:101110008093D80288ED92E00C947F0397FB072E12
:1011200016F4009407D077FD09D00E94C40807FC8C
:1011300005D03EF4909581959F4F089570956195E7
:101140007F4F0895A1E21A2EAA1BBB1BFD010DC003
:10115000AA1FBB1FEE1FFF1FA217B307E407F50767
:1011600020F0A21BB30BE40BF50B661F771F881F43
:10117000991F1A9469F760957095809590959B01D9
:10118000AC01BD01CF010895AA1BBB1B51E107C0F3
:10119000AA1FBB1FA617B70710F0A61BB70B881F07
:1011A000991F5A95A9F780959095BC01CD01089596
:1011B000EE0FFF1F0590F491E02D099481E090E07F
:1011C000F8940C94E30810E0C2E6D0E004C0FE01FD
:1011D0000E94D8082196C336D107C9F7F894FFCFEB
:1011E000010046004600000000006602D301FE0137
:1011F000AD022F020D02210200000000F202D30115
:101200009603F10246035E03D9020D0A00496E6996
:101210006369616E646F20626C7565746F6F74686A
:101220000042543120646973706F6E69626C6500AE
:101230004C6563747572613A200045535441444FC4
:101240005F495A5155494552444100455354414420
:101250004F5F444552454348410045535441444F34
:101260005F4144454C414E54450076656C6F63695F
:101270006461645F6164656C616E74653A20004509
:10128000535441444F5F41545241530076656C6F53
:1012900063696461645F61747261733A20004553ED
:1012A0005441444F5F454E43454E4445525F4C5573
:1012B0004345530045535441444F5F4150414741DA
:0812C000525F4C5543455300F9
:00000001FF
